{
  "_format": "hh-sol-artifact-1",
  "contractName": "PaymentRouter",
  "sourceName": "contracts/PaymentRouter.sol",
  "abi": [
    {
      "inputs": [],
      "stateMutability": "nonpayable",
      "type": "constructor"
    },
    {
      "inputs": [
        {
          "internalType": "address",
          "name": "owner",
          "type": "address"
        }
      ],
      "name": "OwnableInvalidOwner",
      "type": "error"
    },
    {
      "inputs": [
        {
          "internalType": "address",
          "name": "account",
          "type": "address"
        }
      ],
      "name": "OwnableUnauthorizedAccount",
      "type": "error"
    },
    {
      "inputs": [
        {
          "internalType": "address",
          "name": "token",
          "type": "address"
        }
      ],
      "name": "SafeERC20FailedOperation",
      "type": "error"
    },
    {
      "anonymous": false,
      "inputs": [
        {
          "indexed": true,
          "internalType": "address",
          "name": "previousOwner",
          "type": "address"
        },
        {
          "indexed": true,
          "internalType": "address",
          "name": "newOwner",
          "type": "address"
        }
      ],
      "name": "OwnershipTransferred",
      "type": "event"
    },
    {
      "anonymous": false,
      "inputs": [
        {
          "indexed": true,
          "internalType": "uint256",
          "name": "id",
          "type": "uint256"
        },
        {
          "indexed": true,
          "internalType": "address",
          "name": "token",
          "type": "address"
        },
        {
          "indexed": false,
          "internalType": "uint256",
          "name": "amount",
          "type": "uint256"
        },
        {
          "indexed": false,
          "internalType": "uint256",
          "name": "newCounter",
          "type": "uint256"
        }
      ],
      "name": "PaymentReceived",
      "type": "event"
    },
    {
      "anonymous": false,
      "inputs": [
        {
          "indexed": true,
          "internalType": "uint256",
          "name": "id",
          "type": "uint256"
        },
        {
          "indexed": true,
          "internalType": "uint256",
          "name": "chainId",
          "type": "uint256"
        },
        {
          "indexed": true,
          "internalType": "address",
          "name": "token",
          "type": "address"
        },
        {
          "indexed": false,
          "internalType": "address",
          "name": "recipient",
          "type": "address"
        }
      ],
      "name": "RoutingConfigured",
      "type": "event"
    },
    {
      "anonymous": false,
      "inputs": [
        {
          "indexed": true,
          "internalType": "uint256",
          "name": "id",
          "type": "uint256"
        },
        {
          "indexed": false,
          "internalType": "uint256",
          "name": "counter",
          "type": "uint256"
        }
      ],
      "name": "ThresholdExceeded",
      "type": "event"
    },
    {
      "inputs": [
        {
          "internalType": "uint256",
          "name": "id",
          "type": "uint256"
        }
      ],
      "name": "checkThreshold",
      "outputs": [
        {
          "internalType": "string",
          "name": "",
          "type": "string"
        }
      ],
      "stateMutability": "view",
      "type": "function"
    },
    {
      "inputs": [
        {
          "internalType": "uint256",
          "name": "",
          "type": "uint256"
        }
      ],
      "name": "counters",
      "outputs": [
        {
          "internalType": "uint256",
          "name": "",
          "type": "uint256"
        }
      ],
      "stateMutability": "view",
      "type": "function"
    },
    {
      "inputs": [
        {
          "internalType": "uint256",
          "name": "id",
          "type": "uint256"
        }
      ],
      "name": "getCounter",
      "outputs": [
        {
          "internalType": "uint256",
          "name": "",
          "type": "uint256"
        }
      ],
      "stateMutability": "view",
      "type": "function"
    },
    {
      "inputs": [
        {
          "internalType": "uint256",
          "name": "id",
          "type": "uint256"
        },
        {
          "internalType": "uint256",
          "name": "chainId",
          "type": "uint256"
        },
        {
          "internalType": "address",
          "name": "token",
          "type": "address"
        }
      ],
      "name": "getRouting",
      "outputs": [
        {
          "internalType": "address",
          "name": "",
          "type": "address"
        }
      ],
      "stateMutability": "view",
      "type": "function"
    },
    {
      "inputs": [
        {
          "internalType": "uint256",
          "name": "id",
          "type": "uint256"
        },
        {
          "internalType": "address",
          "name": "token",
          "type": "address"
        },
        {
          "internalType": "uint256",
          "name": "amount",
          "type": "uint256"
        }
      ],
      "name": "makePayment",
      "outputs": [],
      "stateMutability": "nonpayable",
      "type": "function"
    },
    {
      "inputs": [],
      "name": "owner",
      "outputs": [
        {
          "internalType": "address",
          "name": "",
          "type": "address"
        }
      ],
      "stateMutability": "view",
      "type": "function"
    },
    {
      "inputs": [],
      "name": "renounceOwnership",
      "outputs": [],
      "stateMutability": "nonpayable",
      "type": "function"
    },
    {
      "inputs": [
        {
          "internalType": "uint256",
          "name": "",
          "type": "uint256"
        },
        {
          "internalType": "uint256",
          "name": "",
          "type": "uint256"
        },
        {
          "internalType": "address",
          "name": "",
          "type": "address"
        }
      ],
      "name": "routingMap",
      "outputs": [
        {
          "internalType": "address",
          "name": "",
          "type": "address"
        }
      ],
      "stateMutability": "view",
      "type": "function"
    },
    {
      "inputs": [
        {
          "internalType": "uint256",
          "name": "id",
          "type": "uint256"
        },
        {
          "internalType": "uint256",
          "name": "chainId",
          "type": "uint256"
        },
        {
          "internalType": "address",
          "name": "token",
          "type": "address"
        },
        {
          "internalType": "address",
          "name": "recipient",
          "type": "address"
        }
      ],
      "name": "setRouting",
      "outputs": [],
      "stateMutability": "nonpayable",
      "type": "function"
    },
    {
      "inputs": [
        {
          "internalType": "uint256[]",
          "name": "ids",
          "type": "uint256[]"
        },
        {
          "internalType": "uint256[]",
          "name": "chainIds",
          "type": "uint256[]"
        },
        {
          "internalType": "address[]",
          "name": "tokens",
          "type": "address[]"
        },
        {
          "internalType": "address[]",
          "name": "recipients",
          "type": "address[]"
        }
      ],
      "name": "setRoutingBatch",
      "outputs": [],
      "stateMutability": "nonpayable",
      "type": "function"
    },
    {
      "inputs": [
        {
          "internalType": "address",
          "name": "newOwner",
          "type": "address"
        }
      ],
      "name": "transferOwnership",
      "outputs": [],
      "stateMutability": "nonpayable",
      "type": "function"
    }
  ],
  "bytecode": "0x608060405234801561001057600080fd5b50338061003757604051631e4fbdf760e01b81526000600482015260240160405180910390fd5b61004081610046565b50610096565b600080546001600160a01b038381166001600160a01b0319831681178455604051919092169283917f8be0079c531659141344cd1fd0a4f28419497f9722a3daafe3b4186f6b6457e09190a35050565b610aed806100a56000396000f3fe608060405234801561001057600080fd5b50600436106100a95760003560e01c8063a8df3f7e11610071578063a8df3f7e14610161578063c58ec86c14610174578063dafae40814610187578063f2fde38b146101a7578063f88e9adf146101ba578063fba7ffa3146101f857600080fd5b8063214aed45146100ae57806339d937df146100e15780633c1f602b14610133578063715018a6146101485780638da5cb5b14610150575b600080fd5b6100ce6100bc366004610815565b60009081526002602052604090205490565b6040519081526020015b60405180910390f35b61011b6100ef36600461084a565b60016020908152600093845260408085208252928452828420905282529020546001600160a01b031681565b6040516001600160a01b0390911681526020016100d8565b61014661014136600461087f565b610218565b005b610146610346565b6000546001600160a01b031661011b565b61014661016f3660046108c5565b61035a565b610146610182366004610946565b6104a5565b61019a610195366004610815565b6105bd565b6040516100d89190610a0a565b6101466101b5366004610a58565b610639565b61011b6101c836600461084a565b60009283526001602090815260408085209385529281528284206001600160a01b03928316855290529120541690565b6100ce610206366004610815565b60026020526000908152604090205481565b610220610677565b6001600160a01b0382166102735760405162461bcd60e51b8152602060048201526015602482015274496e76616c696420746f6b656e206164647265737360581b60448201526064015b60405180910390fd5b6001600160a01b0381166102c95760405162461bcd60e51b815260206004820152601960248201527f496e76616c696420726563697069656e74206164647265737300000000000000604482015260640161026a565b600084815260016020908152604080832086845282528083206001600160a01b038681168086529184529382902080546001600160a01b0319169486169485179055905192835291859187917fd4f0b2bce2a7d326215a1bc4c31ee50cd8c684a64fe382d023d9888ed574f40c910160405180910390a450505050565b61034e610677565b61035860006106a4565b565b6001600160a01b0382166103a85760405162461bcd60e51b8152602060048201526015602482015274496e76616c696420746f6b656e206164647265737360581b604482015260640161026a565b600081116103f85760405162461bcd60e51b815260206004820152601d60248201527f416d6f756e74206d7573742062652067726561746572207468616e2030000000604482015260640161026a565b61040d6001600160a01b0383163330846106f4565b600083815260026020526040812080549161042783610a7a565b9091555050600083815260026020908152604091829020548251848152918201526001600160a01b0384169185917f1ccb44f7994f1a3d2e759376c53231768e4c9cd9b230ad05d26d158cf6ac66cf910160405180910390a3600083815260026020526040902054606410156104a0576104a083610754565b505050565b6104ad610677565b86851480156104bb57508683145b80156104c657508681145b6105125760405162461bcd60e51b815260206004820152601860248201527f4172726179206c656e67746873206d757374206d617463680000000000000000604482015260640161026a565b60005b878110156105b2576105a089898381811061053257610532610aa1565b9050602002013588888481811061054b5761054b610aa1565b9050602002013587878581811061056457610564610aa1565b90506020020160208101906105799190610a58565b86868681811061058b5761058b610aa1565b90506020020160208101906101419190610a58565b806105aa81610a7a565b915050610515565b505050505050505050565b600081815260026020526040902054606090606410156106085750506040805180820190915260158152740636f756e746572207375727061737365642031303605c1b602082015290565b50506040805180820190915260158152741d1a1c995cda1bdb19081b9bdd081c995858da1959605a1b602082015290565b610641610677565b6001600160a01b03811661066b57604051631e4fbdf760e01b81526000600482015260240161026a565b610674816106a4565b50565b6000546001600160a01b031633146103585760405163118cdaa760e01b815233600482015260240161026a565b600080546001600160a01b038381166001600160a01b0319831681178455604051919092169283917f8be0079c531659141344cd1fd0a4f28419497f9722a3daafe3b4186f6b6457e09190a35050565b604080516001600160a01b0385811660248301528416604482015260648082018490528251808303909101815260849091019091526020810180516001600160e01b03166323b872dd60e01b17905261074e9085906107a4565b50505050565b807ff7767ff47accadd926d447dddc8bae27b9aa3189effb9098faa7d68398ffa5d8600260008481526020019081526020016000205460405161079991815260200190565b60405180910390a250565b600080602060008451602086016000885af1806107c7576040513d6000823e3d81fd5b50506000513d915081156107df5780600114156107ec565b6001600160a01b0384163b155b1561074e57604051635274afe760e01b81526001600160a01b038516600482015260240161026a565b60006020828403121561082757600080fd5b5035919050565b80356001600160a01b038116811461084557600080fd5b919050565b60008060006060848603121561085f57600080fd5b83359250602084013591506108766040850161082e565b90509250925092565b6000806000806080858703121561089557600080fd5b84359350602085013592506108ac6040860161082e565b91506108ba6060860161082e565b905092959194509250565b6000806000606084860312156108da57600080fd5b833592506108ea6020850161082e565b9150604084013590509250925092565b60008083601f84011261090c57600080fd5b50813567ffffffffffffffff81111561092457600080fd5b6020830191508360208260051b850101111561093f57600080fd5b9250929050565b6000806000806000806000806080898b03121561096257600080fd5b883567ffffffffffffffff8082111561097a57600080fd5b6109868c838d016108fa565b909a50985060208b013591508082111561099f57600080fd5b6109ab8c838d016108fa565b909850965060408b01359150808211156109c457600080fd5b6109d08c838d016108fa565b909650945060608b01359150808211156109e957600080fd5b506109f68b828c016108fa565b999c989b5096995094979396929594505050565b600060208083528351808285015260005b81811015610a3757858101830151858201604001528201610a1b565b506000604082860101526040601f19601f8301168501019250505092915050565b600060208284031215610a6a57600080fd5b610a738261082e565b9392505050565b600060018201610a9a57634e487b7160e01b600052601160045260246000fd5b5060010190565b634e487b7160e01b600052603260045260246000fdfea26469706673582212207c898acf2d78788d9e006b32acbd6647dac032870393d60074ed3869193bdcd564736f6c63430008140033",
  "linkReferences": {},
  "deployedLinkReferences": {}
}